{
  "contractName": "MyToken",
  "abi": [
    {
      "inputs": [],
      "stateMutability": "nonpayable",
      "type": "constructor"
    },
    {
      "anonymous": false,
      "inputs": [
        {
          "indexed": true,
          "internalType": "address",
          "name": "owner",
          "type": "address"
        },
        {
          "indexed": true,
          "internalType": "address",
          "name": "approved",
          "type": "address"
        },
        {
          "indexed": true,
          "internalType": "uint256",
          "name": "tokenId",
          "type": "uint256"
        }
      ],
      "name": "Approval",
      "type": "event"
    },
    {
      "anonymous": false,
      "inputs": [
        {
          "indexed": true,
          "internalType": "address",
          "name": "owner",
          "type": "address"
        },
        {
          "indexed": true,
          "internalType": "address",
          "name": "operator",
          "type": "address"
        },
        {
          "indexed": false,
          "internalType": "bool",
          "name": "approved",
          "type": "bool"
        }
      ],
      "name": "ApprovalForAll",
      "type": "event"
    },
    {
      "anonymous": false,
      "inputs": [
        {
          "indexed": true,
          "internalType": "address",
          "name": "previousOwner",
          "type": "address"
        },
        {
          "indexed": true,
          "internalType": "address",
          "name": "newOwner",
          "type": "address"
        }
      ],
      "name": "OwnershipTransferred",
      "type": "event"
    },
    {
      "anonymous": false,
      "inputs": [
        {
          "indexed": false,
          "internalType": "address",
          "name": "account",
          "type": "address"
        }
      ],
      "name": "Paused",
      "type": "event"
    },
    {
      "anonymous": false,
      "inputs": [
        {
          "indexed": true,
          "internalType": "address",
          "name": "from",
          "type": "address"
        },
        {
          "indexed": true,
          "internalType": "address",
          "name": "to",
          "type": "address"
        },
        {
          "indexed": true,
          "internalType": "uint256",
          "name": "tokenId",
          "type": "uint256"
        }
      ],
      "name": "Transfer",
      "type": "event"
    },
    {
      "anonymous": false,
      "inputs": [
        {
          "indexed": false,
          "internalType": "address",
          "name": "account",
          "type": "address"
        }
      ],
      "name": "Unpaused",
      "type": "event"
    },
    {
      "inputs": [
        {
          "internalType": "address",
          "name": "to",
          "type": "address"
        },
        {
          "internalType": "uint256",
          "name": "tokenId",
          "type": "uint256"
        }
      ],
      "name": "approve",
      "outputs": [],
      "stateMutability": "nonpayable",
      "type": "function"
    },
    {
      "inputs": [
        {
          "internalType": "address",
          "name": "owner",
          "type": "address"
        }
      ],
      "name": "balanceOf",
      "outputs": [
        {
          "internalType": "uint256",
          "name": "",
          "type": "uint256"
        }
      ],
      "stateMutability": "view",
      "type": "function"
    },
    {
      "inputs": [
        {
          "internalType": "uint256",
          "name": "tokenId",
          "type": "uint256"
        }
      ],
      "name": "burn",
      "outputs": [],
      "stateMutability": "nonpayable",
      "type": "function"
    },
    {
      "inputs": [],
      "name": "cost",
      "outputs": [
        {
          "internalType": "uint256",
          "name": "",
          "type": "uint256"
        }
      ],
      "stateMutability": "view",
      "type": "function"
    },
    {
      "inputs": [
        {
          "internalType": "uint256",
          "name": "tokenId",
          "type": "uint256"
        }
      ],
      "name": "getApproved",
      "outputs": [
        {
          "internalType": "address",
          "name": "",
          "type": "address"
        }
      ],
      "stateMutability": "view",
      "type": "function"
    },
    {
      "inputs": [
        {
          "internalType": "address",
          "name": "owner",
          "type": "address"
        },
        {
          "internalType": "address",
          "name": "operator",
          "type": "address"
        }
      ],
      "name": "isApprovedForAll",
      "outputs": [
        {
          "internalType": "bool",
          "name": "",
          "type": "bool"
        }
      ],
      "stateMutability": "view",
      "type": "function"
    },
    {
      "inputs": [],
      "name": "name",
      "outputs": [
        {
          "internalType": "string",
          "name": "",
          "type": "string"
        }
      ],
      "stateMutability": "view",
      "type": "function"
    },
    {
      "inputs": [],
      "name": "owner",
      "outputs": [
        {
          "internalType": "address",
          "name": "",
          "type": "address"
        }
      ],
      "stateMutability": "view",
      "type": "function"
    },
    {
      "inputs": [
        {
          "internalType": "uint256",
          "name": "tokenId",
          "type": "uint256"
        }
      ],
      "name": "ownerOf",
      "outputs": [
        {
          "internalType": "address",
          "name": "",
          "type": "address"
        }
      ],
      "stateMutability": "view",
      "type": "function"
    },
    {
      "inputs": [],
      "name": "paused",
      "outputs": [
        {
          "internalType": "bool",
          "name": "",
          "type": "bool"
        }
      ],
      "stateMutability": "view",
      "type": "function"
    },
    {
      "inputs": [],
      "name": "renounceOwnership",
      "outputs": [],
      "stateMutability": "nonpayable",
      "type": "function"
    },
    {
      "inputs": [
        {
          "internalType": "address",
          "name": "from",
          "type": "address"
        },
        {
          "internalType": "address",
          "name": "to",
          "type": "address"
        },
        {
          "internalType": "uint256",
          "name": "tokenId",
          "type": "uint256"
        }
      ],
      "name": "safeTransferFrom",
      "outputs": [],
      "stateMutability": "nonpayable",
      "type": "function"
    },
    {
      "inputs": [
        {
          "internalType": "address",
          "name": "from",
          "type": "address"
        },
        {
          "internalType": "address",
          "name": "to",
          "type": "address"
        },
        {
          "internalType": "uint256",
          "name": "tokenId",
          "type": "uint256"
        },
        {
          "internalType": "bytes",
          "name": "data",
          "type": "bytes"
        }
      ],
      "name": "safeTransferFrom",
      "outputs": [],
      "stateMutability": "nonpayable",
      "type": "function"
    },
    {
      "inputs": [
        {
          "internalType": "address",
          "name": "operator",
          "type": "address"
        },
        {
          "internalType": "bool",
          "name": "approved",
          "type": "bool"
        }
      ],
      "name": "setApprovalForAll",
      "outputs": [],
      "stateMutability": "nonpayable",
      "type": "function"
    },
    {
      "inputs": [],
      "name": "symbol",
      "outputs": [
        {
          "internalType": "string",
          "name": "",
          "type": "string"
        }
      ],
      "stateMutability": "view",
      "type": "function"
    },
    {
      "inputs": [
        {
          "internalType": "uint256",
          "name": "index",
          "type": "uint256"
        }
      ],
      "name": "tokenByIndex",
      "outputs": [
        {
          "internalType": "uint256",
          "name": "",
          "type": "uint256"
        }
      ],
      "stateMutability": "view",
      "type": "function"
    },
    {
      "inputs": [
        {
          "internalType": "address",
          "name": "owner",
          "type": "address"
        },
        {
          "internalType": "uint256",
          "name": "index",
          "type": "uint256"
        }
      ],
      "name": "tokenOfOwnerByIndex",
      "outputs": [
        {
          "internalType": "uint256",
          "name": "",
          "type": "uint256"
        }
      ],
      "stateMutability": "view",
      "type": "function"
    },
    {
      "inputs": [],
      "name": "totalSupply",
      "outputs": [
        {
          "internalType": "uint256",
          "name": "",
          "type": "uint256"
        }
      ],
      "stateMutability": "view",
      "type": "function"
    },
    {
      "inputs": [
        {
          "internalType": "address",
          "name": "from",
          "type": "address"
        },
        {
          "internalType": "address",
          "name": "to",
          "type": "address"
        },
        {
          "internalType": "uint256",
          "name": "tokenId",
          "type": "uint256"
        }
      ],
      "name": "transferFrom",
      "outputs": [],
      "stateMutability": "nonpayable",
      "type": "function"
    },
    {
      "inputs": [
        {
          "internalType": "address",
          "name": "newOwner",
          "type": "address"
        }
      ],
      "name": "transferOwnership",
      "outputs": [],
      "stateMutability": "nonpayable",
      "type": "function"
    },
    {
      "inputs": [],
      "name": "pause",
      "outputs": [],
      "stateMutability": "nonpayable",
      "type": "function"
    },
    {
      "inputs": [],
      "name": "unpause",
      "outputs": [],
      "stateMutability": "nonpayable",
      "type": "function"
    },
    {
      "inputs": [
        {
          "internalType": "string",
          "name": "uri",
          "type": "string"
        }
      ],
      "name": "safeMint",
      "outputs": [],
      "stateMutability": "payable",
      "type": "function"
    },
    {
      "inputs": [
        {
          "internalType": "uint256",
          "name": "tokenId",
          "type": "uint256"
        }
      ],
      "name": "tokenURI",
      "outputs": [
        {
          "internalType": "string",
          "name": "",
          "type": "string"
        }
      ],
      "stateMutability": "view",
      "type": "function"
    },
    {
      "inputs": [
        {
          "internalType": "bytes4",
          "name": "interfaceId",
          "type": "bytes4"
        }
      ],
      "name": "supportsInterface",
      "outputs": [
        {
          "internalType": "bool",
          "name": "",
          "type": "bool"
        }
      ],
      "stateMutability": "view",
      "type": "function"
    }
  ],
  "bytecode": "0x6080604052662386f26fc10000600d553480156200001c57600080fd5b50604080518082018252600d81526c13595d1855995c9cd948139195609a1b602080830191825283518085019094526005845264135593919560da1b9084015281519192916200006f91600091620000fd565b50805162000085906001906020840190620000fd565b5050600b805460ff19169055506200009d33620000a3565b620001e0565b600b80546001600160a01b03838116610100818102610100600160a81b031985161790945560405193909204169182907f8be0079c531659141344cd1fd0a4f28419497f9722a3daafe3b4186f6b6457e090600090a35050565b8280546200010b90620001a3565b90600052602060002090601f0160209004810192826200012f57600085556200017a565b82601f106200014a57805160ff19168380011785556200017a565b828001600101855582156200017a579182015b828111156200017a5782518255916020019190600101906200015d565b50620001889291506200018c565b5090565b5b808211156200018857600081556001016200018d565b600181811c90821680620001b857607f821691505b60208210811415620001da57634e487b7160e01b600052602260045260246000fd5b50919050565b61201680620001f06000396000f3fe6080604052600436106101665760003560e01c80635c975abb116100d15780638da5cb5b1161008a578063b88d4fde11610064578063b88d4fde146103f7578063c87b56dd14610417578063e985e9c514610437578063f2fde38b1461048057600080fd5b80638da5cb5b1461039f57806395d89b41146103c2578063a22cb465146103d757600080fd5b80635c975abb1461030a5780636352211e14610322578063695850fb1461034257806370a0823114610355578063715018a6146103755780638456cb591461038a57600080fd5b806323b872dd1161012357806323b872dd146102555780632f745c59146102755780633f4ba83a1461029557806342842e0e146102aa57806342966c68146102ca5780634f6ccce7146102ea57600080fd5b806301ffc9a71461016b57806306fdde03146101a0578063081812fc146101c2578063095ea7b3146101fa57806313faede61461021c57806318160ddd14610240575b600080fd5b34801561017757600080fd5b5061018b610186366004611ab4565b6104a0565b60405190151581526020015b60405180910390f35b3480156101ac57600080fd5b506101b56104b1565b6040516101979190611b29565b3480156101ce57600080fd5b506101e26101dd366004611b3c565b610543565b6040516001600160a01b039091168152602001610197565b34801561020657600080fd5b5061021a610215366004611b71565b61056a565b005b34801561022857600080fd5b50610232600d5481565b604051908152602001610197565b34801561024c57600080fd5b50600854610232565b34801561026157600080fd5b5061021a610270366004611b9b565b610685565b34801561028157600080fd5b50610232610290366004611b71565b6106b7565b3480156102a157600080fd5b5061021a61074d565b3480156102b657600080fd5b5061021a6102c5366004611b9b565b61075f565b3480156102d657600080fd5b5061021a6102e5366004611b3c565b61077a565b3480156102f657600080fd5b50610232610305366004611b3c565b6107ab565b34801561031657600080fd5b50600b5460ff1661018b565b34801561032e57600080fd5b506101e261033d366004611b3c565b61083e565b61021a610350366004611c63565b61089e565b34801561036157600080fd5b50610232610370366004611cac565b610919565b34801561038157600080fd5b5061021a61099f565b34801561039657600080fd5b5061021a6109b1565b3480156103ab57600080fd5b50600b5461010090046001600160a01b03166101e2565b3480156103ce57600080fd5b506101b56109c1565b3480156103e357600080fd5b5061021a6103f2366004611cc7565b6109d0565b34801561040357600080fd5b5061021a610412366004611d03565b6109db565b34801561042357600080fd5b506101b5610432366004611b3c565b610a13565b34801561044357600080fd5b5061018b610452366004611d7f565b6001600160a01b03918216600090815260056020908152604080832093909416825291909152205460ff1690565b34801561048c57600080fd5b5061021a61049b366004611cac565b610a1e565b60006104ab82610a94565b92915050565b6060600080546104c090611db2565b80601f01602080910402602001604051908101604052809291908181526020018280546104ec90611db2565b80156105395780601f1061050e57610100808354040283529160200191610539565b820191906000526020600020905b81548152906001019060200180831161051c57829003601f168201915b5050505050905090565b600061054e82610ab9565b506000908152600460205260409020546001600160a01b031690565b60006105758261083e565b9050806001600160a01b0316836001600160a01b031614156105e85760405162461bcd60e51b815260206004820152602160248201527f4552433732313a20617070726f76616c20746f2063757272656e74206f776e656044820152603960f91b60648201526084015b60405180910390fd5b336001600160a01b038216148061060457506106048133610452565b6106765760405162461bcd60e51b815260206004820152603e60248201527f4552433732313a20617070726f76652063616c6c6572206973206e6f7420746f60448201527f6b656e206f776e6572206e6f7220617070726f76656420666f7220616c6c000060648201526084016105df565b6106808383610b18565b505050565b610690335b82610b86565b6106ac5760405162461bcd60e51b81526004016105df90611ded565b610680838383610c05565b60006106c283610919565b82106107245760405162461bcd60e51b815260206004820152602b60248201527f455243373231456e756d657261626c653a206f776e657220696e646578206f7560448201526a74206f6620626f756e647360a81b60648201526084016105df565b506001600160a01b03919091166000908152600660209081526040808320938352929052205490565b610755610dac565b61075d610e0c565b565b610680838383604051806020016040528060008152506109db565b6107833361068a565b61079f5760405162461bcd60e51b81526004016105df90611ded565b6107a881610e5e565b50565b60006107b660085490565b82106108195760405162461bcd60e51b815260206004820152602c60248201527f455243373231456e756d657261626c653a20676c6f62616c20696e646578206f60448201526b7574206f6620626f756e647360a01b60648201526084016105df565b6008828154811061082c5761082c611e3b565b90600052602060002001549050919050565b6000818152600260205260408120546001600160a01b0316806104ab5760405162461bcd60e51b8152602060048201526018602482015277115490cdcc8c4e881a5b9d985b1a59081d1bdad95b88125160421b60448201526064016105df565b600d543410156108e65760405162461bcd60e51b8152602060048201526013602482015272496e73756666696369656e742066756e64732160681b60448201526064016105df565b60006108f1600c5490565b9050610901600c80546001019055565b61090b3382610e67565b6109158183610e81565b5050565b60006001600160a01b0382166109835760405162461bcd60e51b815260206004820152602960248201527f4552433732313a2061646472657373207a65726f206973206e6f7420612076616044820152683634b21037bbb732b960b91b60648201526084016105df565b506001600160a01b031660009081526003602052604090205490565b6109a7610dac565b61075d6000610f1b565b6109b9610dac565b61075d610f75565b6060600180546104c090611db2565b610915338383610fb2565b6109e53383610b86565b610a015760405162461bcd60e51b81526004016105df90611ded565b610a0d84848484611081565b50505050565b60606104ab826110b4565b610a26610dac565b6001600160a01b038116610a8b5760405162461bcd60e51b815260206004820152602660248201527f4f776e61626c653a206e6577206f776e657220697320746865207a65726f206160448201526564647265737360d01b60648201526084016105df565b6107a881610f1b565b60006001600160e01b0319821663780e9d6360e01b14806104ab57506104ab826111bd565b6000818152600260205260409020546001600160a01b03166107a85760405162461bcd60e51b8152602060048201526018602482015277115490cdcc8c4e881a5b9d985b1a59081d1bdad95b88125160421b60448201526064016105df565b600081815260046020526040902080546001600160a01b0319166001600160a01b0384169081179091558190610b4d8261083e565b6001600160a01b03167f8c5be1e5ebec7d5bd14f71427d1e84f3dd0314c0f7b2291e5b200ac8c7c3b92560405160405180910390a45050565b600080610b928361083e565b9050806001600160a01b0316846001600160a01b03161480610bd957506001600160a01b0380821660009081526005602090815260408083209388168352929052205460ff165b80610bfd5750836001600160a01b0316610bf284610543565b6001600160a01b0316145b949350505050565b826001600160a01b0316610c188261083e565b6001600160a01b031614610c7c5760405162461bcd60e51b815260206004820152602560248201527f4552433732313a207472616e736665722066726f6d20696e636f72726563742060448201526437bbb732b960d91b60648201526084016105df565b6001600160a01b038216610cde5760405162461bcd60e51b8152602060048201526024808201527f4552433732313a207472616e7366657220746f20746865207a65726f206164646044820152637265737360e01b60648201526084016105df565b610ce983838361120d565b610cf4600082610b18565b6001600160a01b0383166000908152600360205260408120805460019290610d1d908490611e67565b90915550506001600160a01b0382166000908152600360205260408120805460019290610d4b908490611e7e565b909155505060008181526002602052604080822080546001600160a01b0319166001600160a01b0386811691821790925591518493918716917fddf252ad1be2c89b69c2b068fc378daa952ba7f163c4a11628f55a4df523b3ef91a4505050565b600b546001600160a01b0361010090910416331461075d5760405162461bcd60e51b815260206004820181905260248201527f4f776e61626c653a2063616c6c6572206973206e6f7420746865206f776e657260448201526064016105df565b610e14611220565b600b805460ff191690557f5db9ee0a495bf2e6ff9c91a7834c1ba4fdd244a5e8aa4e537bd38aeae4b073aa335b6040516001600160a01b03909116815260200160405180910390a1565b6107a881611269565b6109158282604051806020016040528060008152506112a9565b6000828152600260205260409020546001600160a01b0316610efc5760405162461bcd60e51b815260206004820152602e60248201527f45524337323155524953746f726167653a2055524920736574206f66206e6f6e60448201526d32bc34b9ba32b73a103a37b5b2b760911b60648201526084016105df565b6000828152600a602090815260409091208251610680928401906119cf565b600b80546001600160a01b03838116610100818102610100600160a81b031985161790945560405193909204169182907f8be0079c531659141344cd1fd0a4f28419497f9722a3daafe3b4186f6b6457e090600090a35050565b610f7d6112dc565b600b805460ff191660011790557f62e78cea01bee320cd4e420270b5ea74000d11b0c9f74754ebdbfc544b05a258610e413390565b816001600160a01b0316836001600160a01b031614156110145760405162461bcd60e51b815260206004820152601960248201527f4552433732313a20617070726f766520746f2063616c6c65720000000000000060448201526064016105df565b6001600160a01b03838116600081815260056020908152604080832094871680845294825291829020805460ff191686151590811790915591519182527f17307eab39ab6107e8899845ad3d59bd9653f200f220920489ca2b5937696c31910160405180910390a3505050565b61108c848484610c05565b61109884848484611322565b610a0d5760405162461bcd60e51b81526004016105df90611e96565b60606110bf82610ab9565b6000828152600a6020526040812080546110d890611db2565b80601f016020809104026020016040519081016040528092919081815260200182805461110490611db2565b80156111515780601f1061112657610100808354040283529160200191611151565b820191906000526020600020905b81548152906001019060200180831161113457829003601f168201915b50505050509050600061116f60408051602081019091526000815290565b9050805160001415611182575092915050565b8151156111b457808260405160200161119c929190611ee8565b60405160208183030381529060405292505050919050565b610bfd84611420565b60006001600160e01b031982166380ac58cd60e01b14806111ee57506001600160e01b03198216635b5e139f60e01b145b806104ab57506301ffc9a760e01b6001600160e01b03198316146104ab565b6112156112dc565b610680838383611494565b600b5460ff1661075d5760405162461bcd60e51b815260206004820152601460248201527314185d5cd8589b194e881b9bdd081c185d5cd95960621b60448201526064016105df565b6112728161154c565b6000818152600a60205260409020805461128b90611db2565b1590506107a8576000818152600a602052604081206107a891611a53565b6112b383836115f3565b6112c06000848484611322565b6106805760405162461bcd60e51b81526004016105df90611e96565b600b5460ff161561075d5760405162461bcd60e51b815260206004820152601060248201526f14185d5cd8589b194e881c185d5cd95960821b60448201526064016105df565b60006001600160a01b0384163b1561141557604051630a85bd0160e11b81526001600160a01b0385169063150b7a0290611366903390899088908890600401611f17565b6020604051808303816000875af19250505080156113a1575060408051601f3d908101601f1916820190925261139e91810190611f54565b60015b6113fb573d8080156113cf576040519150601f19603f3d011682016040523d82523d6000602084013e6113d4565b606091505b5080516113f35760405162461bcd60e51b81526004016105df90611e96565b805181602001fd5b6001600160e01b031916630a85bd0160e11b149050610bfd565b506001949350505050565b606061142b82610ab9565b600061144260408051602081019091526000815290565b90506000815111611462576040518060200160405280600081525061148d565b8061146c84611741565b60405160200161147d929190611ee8565b6040516020818303038152906040525b9392505050565b6001600160a01b0383166114ef576114ea81600880546000838152600960205260408120829055600182018355919091527ff3f7a9fe364faab93b216da50a3214154f22a0a2b415b23a84c8169e8b636ee30155565b611512565b816001600160a01b0316836001600160a01b03161461151257611512838261183f565b6001600160a01b03821661152957610680816118dc565b826001600160a01b0316826001600160a01b03161461068057610680828261198b565b60006115578261083e565b90506115658160008461120d565b611570600083610b18565b6001600160a01b0381166000908152600360205260408120805460019290611599908490611e67565b909155505060008281526002602052604080822080546001600160a01b0319169055518391906001600160a01b038416907fddf252ad1be2c89b69c2b068fc378daa952ba7f163c4a11628f55a4df523b3ef908390a45050565b6001600160a01b0382166116495760405162461bcd60e51b815260206004820181905260248201527f4552433732313a206d696e7420746f20746865207a65726f206164647265737360448201526064016105df565b6000818152600260205260409020546001600160a01b0316156116ae5760405162461bcd60e51b815260206004820152601c60248201527f4552433732313a20746f6b656e20616c7265616479206d696e7465640000000060448201526064016105df565b6116ba6000838361120d565b6001600160a01b03821660009081526003602052604081208054600192906116e3908490611e7e565b909155505060008181526002602052604080822080546001600160a01b0319166001600160a01b03861690811790915590518392907fddf252ad1be2c89b69c2b068fc378daa952ba7f163c4a11628f55a4df523b3ef908290a45050565b6060816117655750506040805180820190915260018152600360fc1b602082015290565b8160005b811561178f578061177981611f71565b91506117889050600a83611fa2565b9150611769565b60008167ffffffffffffffff8111156117aa576117aa611bd7565b6040519080825280601f01601f1916602001820160405280156117d4576020820181803683370190505b5090505b8415610bfd576117e9600183611e67565b91506117f6600a86611fb6565b611801906030611e7e565b60f81b81838151811061181657611816611e3b565b60200101906001600160f81b031916908160001a905350611838600a86611fa2565b94506117d8565b6000600161184c84610919565b6118569190611e67565b6000838152600760205260409020549091508082146118a9576001600160a01b03841660009081526006602090815260408083208584528252808320548484528184208190558352600790915290208190555b5060009182526007602090815260408084208490556001600160a01b039094168352600681528383209183525290812055565b6008546000906118ee90600190611e67565b6000838152600960205260408120546008805493945090928490811061191657611916611e3b565b90600052602060002001549050806008838154811061193757611937611e3b565b600091825260208083209091019290925582815260099091526040808220849055858252812055600880548061196f5761196f611fca565b6001900381819060005260206000200160009055905550505050565b600061199683610919565b6001600160a01b039093166000908152600660209081526040808320868452825280832085905593825260079052919091209190915550565b8280546119db90611db2565b90600052602060002090601f0160209004810192826119fd5760008555611a43565b82601f10611a1657805160ff1916838001178555611a43565b82800160010185558215611a43579182015b82811115611a43578251825591602001919060010190611a28565b50611a4f929150611a89565b5090565b508054611a5f90611db2565b6000825580601f10611a6f575050565b601f0160209004906000526020600020908101906107a891905b5b80821115611a4f5760008155600101611a8a565b6001600160e01b0319811681146107a857600080fd5b600060208284031215611ac657600080fd5b813561148d81611a9e565b60005b83811015611aec578181015183820152602001611ad4565b83811115610a0d5750506000910152565b60008151808452611b15816020860160208601611ad1565b601f01601f19169290920160200192915050565b60208152600061148d6020830184611afd565b600060208284031215611b4e57600080fd5b5035919050565b80356001600160a01b0381168114611b6c57600080fd5b919050565b60008060408385031215611b8457600080fd5b611b8d83611b55565b946020939093013593505050565b600080600060608486031215611bb057600080fd5b611bb984611b55565b9250611bc760208501611b55565b9150604084013590509250925092565b634e487b7160e01b600052604160045260246000fd5b600067ffffffffffffffff80841115611c0857611c08611bd7565b604051601f8501601f19908116603f01168101908282118183101715611c3057611c30611bd7565b81604052809350858152868686011115611c4957600080fd5b858560208301376000602087830101525050509392505050565b600060208284031215611c7557600080fd5b813567ffffffffffffffff811115611c8c57600080fd5b8201601f81018413611c9d57600080fd5b610bfd84823560208401611bed565b600060208284031215611cbe57600080fd5b61148d82611b55565b60008060408385031215611cda57600080fd5b611ce383611b55565b915060208301358015158114611cf857600080fd5b809150509250929050565b60008060008060808587031215611d1957600080fd5b611d2285611b55565b9350611d3060208601611b55565b925060408501359150606085013567ffffffffffffffff811115611d5357600080fd5b8501601f81018713611d6457600080fd5b611d7387823560208401611bed565b91505092959194509250565b60008060408385031215611d9257600080fd5b611d9b83611b55565b9150611da960208401611b55565b90509250929050565b600181811c90821680611dc657607f821691505b60208210811415611de757634e487b7160e01b600052602260045260246000fd5b50919050565b6020808252602e908201527f4552433732313a2063616c6c6572206973206e6f7420746f6b656e206f776e6560408201526d1c881b9bdc88185c1c1c9bdd995960921b606082015260800190565b634e487b7160e01b600052603260045260246000fd5b634e487b7160e01b600052601160045260246000fd5b600082821015611e7957611e79611e51565b500390565b60008219821115611e9157611e91611e51565b500190565b60208082526032908201527f4552433732313a207472616e7366657220746f206e6f6e20455243373231526560408201527131b2b4bb32b91034b6b83632b6b2b73a32b960711b606082015260800190565b60008351611efa818460208801611ad1565b835190830190611f0e818360208801611ad1565b01949350505050565b6001600160a01b0385811682528416602082015260408101839052608060608201819052600090611f4a90830184611afd565b9695505050505050565b600060208284031215611f6657600080fd5b815161148d81611a9e565b6000600019821415611f8557611f85611e51565b5060010190565b634e487b7160e01b600052601260045260246000fd5b600082611fb157611fb1611f8c565b500490565b600082611fc557611fc5611f8c565b500690565b634e487b7160e01b600052603160045260246000fdfea2646970667358221220aa08eca0200e1d5bce900671f1ed92fc54b567589a3316b7f37a41b24224702164736f6c634300080b0033",
  "immutableReferences": {},
  "source": "// SPDX-License-Identifier: MIT\r\npragma solidity ^0.8.4;\r\n\r\nimport \"@openzeppelin/contracts/token/ERC721/ERC721.sol\";\r\nimport \"@openzeppelin/contracts/token/ERC721/extensions/ERC721Enumerable.sol\";\r\nimport \"@openzeppelin/contracts/token/ERC721/extensions/ERC721URIStorage.sol\";\r\nimport \"@openzeppelin/contracts/security/Pausable.sol\";\r\nimport \"@openzeppelin/contracts/access/Ownable.sol\";\r\nimport \"@openzeppelin/contracts/token/ERC721/extensions/ERC721Burnable.sol\";\r\nimport \"@openzeppelin/contracts/utils/Counters.sol\";\r\n\r\ncontract MyToken is ERC721, ERC721Enumerable, ERC721URIStorage, Pausable, Ownable, ERC721Burnable {\r\n    using Counters for Counters.Counter;\r\n\r\n    Counters.Counter private _tokenIdCounter;\r\n\r\n    uint256 public cost = 10000000000000000;\r\n\r\n    constructor() ERC721(\"MetaVerse NFT\", \"MVNFT\") {}\r\n\r\n    function pause() public onlyOwner {\r\n        _pause();\r\n    }\r\n\r\n    function unpause() public onlyOwner {\r\n        _unpause();\r\n    }\r\n\r\n    function safeMint(string memory uri) public payable{\r\n        require(msg.value >= cost, \"Insufficient funds!\");\r\n        uint256 tokenId = _tokenIdCounter.current();\r\n        _tokenIdCounter.increment();\r\n        _safeMint(msg.sender, tokenId);\r\n        _setTokenURI(tokenId, uri);\r\n    }\r\n\r\n    function _beforeTokenTransfer(address from, address to, uint256 tokenId)\r\n        internal\r\n        whenNotPaused\r\n        override(ERC721, ERC721Enumerable)\r\n    {\r\n        super._beforeTokenTransfer(from, to, tokenId);\r\n    }\r\n    \r\n    function _burn(uint256 tokenId) internal override(ERC721, ERC721URIStorage) {\r\n        super._burn(tokenId);\r\n    }\r\n\r\n    function tokenURI(uint256 tokenId)\r\n        public\r\n        view\r\n        override(ERC721, ERC721URIStorage)\r\n        returns (string memory)\r\n    {\r\n        return super.tokenURI(tokenId);\r\n    }\r\n    \r\n\r\n    function supportsInterface(bytes4 interfaceId)\r\n        public\r\n        view\r\n        override(ERC721, ERC721Enumerable)\r\n        returns (bool)\r\n    {\r\n        return super.supportsInterface(interfaceId);\r\n    }\r\n}\r\n",
  "sourcePath": "D:\\work\\ERC-721 contract\\contracts\\MyToken.sol",
  "compiler": {
    "name": "solc",
    "version": "0.8.11+commit.d7f03943.Emscripten.clang"
  },
  "schemaVersion": "3.4.4",
  "updatedAt": "2022-07-21T11:26:56.440Z",
  "devdoc": {
    "kind": "dev",
    "methods": {
      "approve(address,uint256)": {
        "details": "See {IERC721-approve}."
      },
      "balanceOf(address)": {
        "details": "See {IERC721-balanceOf}."
      },
      "burn(uint256)": {
        "details": "Burns `tokenId`. See {ERC721-_burn}. Requirements: - The caller must own `tokenId` or be an approved operator."
      },
      "getApproved(uint256)": {
        "details": "See {IERC721-getApproved}."
      },
      "isApprovedForAll(address,address)": {
        "details": "See {IERC721-isApprovedForAll}."
      },
      "name()": {
        "details": "See {IERC721Metadata-name}."
      },
      "owner()": {
        "details": "Returns the address of the current owner."
      },
      "ownerOf(uint256)": {
        "details": "See {IERC721-ownerOf}."
      },
      "paused()": {
        "details": "Returns true if the contract is paused, and false otherwise."
      },
      "renounceOwnership()": {
        "details": "Leaves the contract without owner. It will not be possible to call `onlyOwner` functions anymore. Can only be called by the current owner. NOTE: Renouncing ownership will leave the contract without an owner, thereby removing any functionality that is only available to the owner."
      },
      "safeTransferFrom(address,address,uint256)": {
        "details": "See {IERC721-safeTransferFrom}."
      },
      "safeTransferFrom(address,address,uint256,bytes)": {
        "details": "See {IERC721-safeTransferFrom}."
      },
      "setApprovalForAll(address,bool)": {
        "details": "See {IERC721-setApprovalForAll}."
      },
      "symbol()": {
        "details": "See {IERC721Metadata-symbol}."
      },
      "tokenByIndex(uint256)": {
        "details": "See {IERC721Enumerable-tokenByIndex}."
      },
      "tokenOfOwnerByIndex(address,uint256)": {
        "details": "See {IERC721Enumerable-tokenOfOwnerByIndex}."
      },
      "totalSupply()": {
        "details": "See {IERC721Enumerable-totalSupply}."
      },
      "transferFrom(address,address,uint256)": {
        "details": "See {IERC721-transferFrom}."
      },
      "transferOwnership(address)": {
        "details": "Transfers ownership of the contract to a new account (`newOwner`). Can only be called by the current owner."
      }
    },
    "version": 1
  },
  "userdoc": {
    "kind": "user",
    "methods": {},
    "version": 1
  }
}